{
  "_format": "hh-sol-artifact-1",
  "contractName": "Raffle",
  "sourceName": "contracts/Raffle.sol",
  "abi": [
    {
      "inputs": [
        {
          "internalType": "address",
          "name": "vrfCoordinatorV2",
          "type": "address"
        },
        {
          "internalType": "uint256",
          "name": "entranceFee",
          "type": "uint256"
        },
        {
          "internalType": "uint64",
          "name": "subscriptionId",
          "type": "uint64"
        },
        {
          "internalType": "bytes32",
          "name": "gasLane",
          "type": "bytes32"
        },
        {
          "internalType": "uint32",
          "name": "callbackGasLimit",
          "type": "uint32"
        }
      ],
      "stateMutability": "nonpayable",
      "type": "constructor"
    },
    {
      "inputs": [
        {
          "internalType": "address",
          "name": "have",
          "type": "address"
        },
        {
          "internalType": "address",
          "name": "want",
          "type": "address"
        }
      ],
      "name": "OnlyCoordinatorCanFulfill",
      "type": "error"
    },
    {
      "inputs": [],
      "name": "Raffle__NotEnoughETHEntered",
      "type": "error"
    },
    {
      "inputs": [],
      "name": "Raffle__TransferFailed",
      "type": "error"
    },
    {
      "anonymous": false,
      "inputs": [
        {
          "indexed": true,
          "internalType": "address",
          "name": "player",
          "type": "address"
        }
      ],
      "name": "RAffleEnter",
      "type": "event"
    },
    {
      "anonymous": false,
      "inputs": [
        {
          "indexed": true,
          "internalType": "uint256",
          "name": "requestId",
          "type": "uint256"
        }
      ],
      "name": "RequestRaffleWinner",
      "type": "event"
    },
    {
      "anonymous": false,
      "inputs": [
        {
          "indexed": true,
          "internalType": "address",
          "name": "recentWinner",
          "type": "address"
        }
      ],
      "name": "WinnerPicked",
      "type": "event"
    },
    {
      "inputs": [],
      "name": "enterRaffle",
      "outputs": [],
      "stateMutability": "payable",
      "type": "function"
    },
    {
      "inputs": [],
      "name": "getEntranceFee",
      "outputs": [
        {
          "internalType": "uint256",
          "name": "",
          "type": "uint256"
        }
      ],
      "stateMutability": "view",
      "type": "function"
    },
    {
      "inputs": [
        {
          "internalType": "uint256",
          "name": "index",
          "type": "uint256"
        }
      ],
      "name": "getPlayer",
      "outputs": [
        {
          "internalType": "address",
          "name": "",
          "type": "address"
        }
      ],
      "stateMutability": "view",
      "type": "function"
    },
    {
      "inputs": [
        {
          "internalType": "uint256",
          "name": "requestId",
          "type": "uint256"
        },
        {
          "internalType": "uint256[]",
          "name": "randomWords",
          "type": "uint256[]"
        }
      ],
      "name": "rawFulfillRandomWords",
      "outputs": [],
      "stateMutability": "nonpayable",
      "type": "function"
    },
    {
      "inputs": [],
      "name": "requestRandomWinner",
      "outputs": [],
      "stateMutability": "nonpayable",
      "type": "function"
    }
  ],
  "bytecode": "0x6101406040523480156200001257600080fd5b5060405162000e8a38038062000e8a83398181016040528101906200003891906200016e565b848073ffffffffffffffffffffffffffffffffffffffff1660808173ffffffffffffffffffffffffffffffffffffffff1660601b81525050508361012081815250508473ffffffffffffffffffffffffffffffffffffffff1660a08173ffffffffffffffffffffffffffffffffffffffff1660601b815250508160e081815250508267ffffffffffffffff1660c08167ffffffffffffffff1660c01b815250508063ffffffff166101008163ffffffff1660e01b815250505050505050620002e9565b6000815190506200010c8162000267565b92915050565b600081519050620001238162000281565b92915050565b6000815190506200013a816200029b565b92915050565b6000815190506200015181620002b5565b92915050565b6000815190506200016881620002cf565b92915050565b600080600080600060a086880312156200018d576200018c62000262565b5b60006200019d88828901620000fb565b9550506020620001b08882890162000129565b9450506040620001c38882890162000157565b9350506060620001d68882890162000112565b9250506080620001e98882890162000140565b9150509295509295909350565b6000620002038262000214565b9050919050565b6000819050919050565b600073ffffffffffffffffffffffffffffffffffffffff82169050919050565b6000819050919050565b600063ffffffff82169050919050565b600067ffffffffffffffff82169050919050565b600080fd5b6200027281620001f6565b81146200027e57600080fd5b50565b6200028c816200020a565b81146200029857600080fd5b50565b620002a68162000234565b8114620002b257600080fd5b50565b620002c0816200023e565b8114620002cc57600080fd5b50565b620002da816200024e565b8114620002e657600080fd5b50565b60805160601c60a05160601c60c05160c01c60e0516101005160e01c61012051610b37620003536000396000818161010501526101eb0152600061036f0152600061032b0152600061034c015260006102ef01526000818161012b015261017f0152610b376000f3fe60806040526004361061004a5760003560e01c806309bc33a71461004f5780631fe543e31461007a5780632cfcc539146100a3578063522a1f0b146100ad578063e55ae4e8146100c4575b600080fd5b34801561005b57600080fd5b50610064610101565b60405161007191906108e4565b60405180910390f35b34801561008657600080fd5b506100a1600480360381019061009c919061075f565b610129565b005b6100ab6101e9565b005b3480156100b957600080fd5b506100c26102eb565b005b3480156100d057600080fd5b506100eb60048036038101906100e69190610705565b610434565b6040516100f8919061084d565b60405180910390f35b60007f0000000000000000000000000000000000000000000000000000000000000000905090565b7f000000000000000000000000000000000000000000000000000000000000000073ffffffffffffffffffffffffffffffffffffffff163373ffffffffffffffffffffffffffffffffffffffff16146101db57337f00000000000000000000000000000000000000000000000000000000000000006040517f1cf993f40000000000000000000000000000000000000000000000000000000081526004016101d2929190610868565b60405180910390fd5b6101e5828261047c565b5050565b7f0000000000000000000000000000000000000000000000000000000000000000341015610243576040517fbd4e069500000000000000000000000000000000000000000000000000000000815260040160405180910390fd5b6001339080600181540180825580915050600190039060005260206000200160009091909190916101000a81548173ffffffffffffffffffffffffffffffffffffffff021916908373ffffffffffffffffffffffffffffffffffffffff1602179055503373ffffffffffffffffffffffffffffffffffffffff167fb16300db1724deaf92441dd8ec2980ec3e4de3b218e6ca1048d15b640302c28960405160405180910390a2565b60007f000000000000000000000000000000000000000000000000000000000000000073ffffffffffffffffffffffffffffffffffffffff16635d3b1d307f00000000000000000000000000000000000000000000000000000000000000007f000000000000000000000000000000000000000000000000000000000000000060037f000000000000000000000000000000000000000000000000000000000000000060016040518663ffffffff1660e01b81526004016103b0959493929190610891565b602060405180830381600087803b1580156103ca57600080fd5b505af11580156103de573d6000803e3d6000fd5b505050506040513d601f19601f820116820180604052508101906104029190610732565b9050807fde6349b018d6c03d837b67d9a198a6ba4842546f2295fe963fae141e5dbaef8160405160405180910390a250565b60006001828154811061044a57610449610a64565b5b9060005260206000200160009054906101000a900473ffffffffffffffffffffffffffffffffffffffff169050919050565b60006001805490508260008151811061049857610497610a64565b5b60200260200101516104aa9190610a04565b90506000600182815481106104c2576104c1610a64565b5b9060005260206000200160009054906101000a900473ffffffffffffffffffffffffffffffffffffffff169050806000806101000a81548173ffffffffffffffffffffffffffffffffffffffff021916908373ffffffffffffffffffffffffffffffffffffffff16021790555060008060009054906101000a900473ffffffffffffffffffffffffffffffffffffffff1673ffffffffffffffffffffffffffffffffffffffff164760405161057690610838565b60006040518083038185875af1925050503d80600081146105b3576040519150601f19603f3d011682016040523d82523d6000602084013e6105b8565b606091505b50509050806105f3576040517fa1d04b3900000000000000000000000000000000000000000000000000000000815260040160405180910390fd5b8173ffffffffffffffffffffffffffffffffffffffff167f5b690ec4a06fe979403046eaeea5b3ce38524683c3001f662c8b5a829632f7df60405160405180910390a25050505050565b600061065061064b84610924565b6108ff565b9050808382526020820190508285602086028201111561067357610672610ac7565b5b60005b858110156106a3578161068988826106db565b845260208401935060208301925050600181019050610676565b5050509392505050565b600082601f8301126106c2576106c1610ac2565b5b81356106d284826020860161063d565b91505092915050565b6000813590506106ea81610aea565b92915050565b6000815190506106ff81610aea565b92915050565b60006020828403121561071b5761071a610ad1565b5b6000610729848285016106db565b91505092915050565b60006020828403121561074857610747610ad1565b5b6000610756848285016106f0565b91505092915050565b6000806040838503121561077657610775610ad1565b5b6000610784858286016106db565b925050602083013567ffffffffffffffff8111156107a5576107a4610acc565b5b6107b1858286016106ad565b9150509250929050565b6107c48161095b565b82525050565b6107d38161096d565b82525050565b60006107e6600083610950565b91506107f182610ae7565b600082019050919050565b61080581610977565b82525050565b610814816109a5565b82525050565b610823816109af565b82525050565b610832816109bf565b82525050565b6000610843826107d9565b9150819050919050565b600060208201905061086260008301846107bb565b92915050565b600060408201905061087d60008301856107bb565b61088a60208301846107bb565b9392505050565b600060a0820190506108a660008301886107ca565b6108b36020830187610829565b6108c060408301866107fc565b6108cd606083018561081a565b6108da608083018461081a565b9695505050505050565b60006020820190506108f9600083018461080b565b92915050565b600061090961091a565b905061091582826109d3565b919050565b6000604051905090565b600067ffffffffffffffff82111561093f5761093e610a93565b5b602082029050602081019050919050565b600081905092915050565b600061096682610985565b9050919050565b6000819050919050565b600061ffff82169050919050565b600073ffffffffffffffffffffffffffffffffffffffff82169050919050565b6000819050919050565b600063ffffffff82169050919050565b600067ffffffffffffffff82169050919050565b6109dc82610ad6565b810181811067ffffffffffffffff821117156109fb576109fa610a93565b5b80604052505050565b6000610a0f826109a5565b9150610a1a836109a5565b925082610a2a57610a29610a35565b5b828206905092915050565b7f4e487b7100000000000000000000000000000000000000000000000000000000600052601260045260246000fd5b7f4e487b7100000000000000000000000000000000000000000000000000000000600052603260045260246000fd5b7f4e487b7100000000000000000000000000000000000000000000000000000000600052604160045260246000fd5b600080fd5b600080fd5b600080fd5b600080fd5b6000601f19601f8301169050919050565b50565b610af3816109a5565b8114610afe57600080fd5b5056fea264697066735822122068dc33a39ad78d02784fb4878a07d657dbfef1f5836c41d7d2f71343fd02edb964736f6c63430008070033",
  "linkReferences": {},
  "deployedLinkReferences": {}
}